{
  "_format": "hh-sol-artifact-1",
  "contractName": "ProStakers",
  "sourceName": "contracts/ProStakers.sol",
  "abi": [
    {
      "anonymous": false,
      "inputs": [
        {
          "indexed": true,
          "internalType": "address",
          "name": "_from",
          "type": "address"
        },
        {
          "indexed": true,
          "internalType": "address",
          "name": "_to",
          "type": "address"
        },
        {
          "indexed": false,
          "internalType": "uint256",
          "name": "_value",
          "type": "uint256"
        }
      ],
      "name": "Deposit",
      "type": "event"
    },
    {
      "anonymous": false,
      "inputs": [
        {
          "indexed": true,
          "internalType": "address",
          "name": "_from",
          "type": "address"
        },
        {
          "indexed": true,
          "internalType": "address",
          "name": "_to",
          "type": "address"
        },
        {
          "indexed": false,
          "internalType": "uint256",
          "name": "_value",
          "type": "uint256"
        }
      ],
      "name": "Withdraw",
      "type": "event"
    },
    {
      "inputs": [],
      "name": "deposit",
      "outputs": [],
      "stateMutability": "payable",
      "type": "function"
    },
    {
      "inputs": [
        {
          "internalType": "address",
          "name": "",
          "type": "address"
        }
      ],
      "name": "isStaker",
      "outputs": [
        {
          "internalType": "bool",
          "name": "",
          "type": "bool"
        }
      ],
      "stateMutability": "view",
      "type": "function"
    },
    {
      "inputs": [
        {
          "internalType": "address",
          "name": "",
          "type": "address"
        }
      ],
      "name": "stakedAmount",
      "outputs": [
        {
          "internalType": "uint256",
          "name": "",
          "type": "uint256"
        }
      ],
      "stateMutability": "view",
      "type": "function"
    },
    {
      "inputs": [],
      "name": "stakersCount",
      "outputs": [
        {
          "internalType": "uint256",
          "name": "",
          "type": "uint256"
        }
      ],
      "stateMutability": "view",
      "type": "function"
    },
    {
      "inputs": [
        {
          "internalType": "uint256",
          "name": "_amount",
          "type": "uint256"
        }
      ],
      "name": "withdraw",
      "outputs": [],
      "stateMutability": "payable",
      "type": "function"
    }
  ],
  "bytecode": "0x60806040526000805534801561001457600080fd5b50610bf0806100246000396000f3fe60806040526004361061004a5760003560e01c80632e1a7d4d1461004f5780636f1e85331461006b578063a2e80c5e146100a8578063d0e30db0146100d3578063f9931855146100dd575b600080fd5b61006960048036038101906100649190610749565b61011a565b005b34801561007757600080fd5b50610092600480360381019061008d91906107d4565b6104cf565b60405161009f919061081c565b60405180910390f35b3480156100b457600080fd5b506100bd6104ef565b6040516100ca9190610846565b60405180910390f35b6100db6104f5565b005b3480156100e957600080fd5b5061010460048036038101906100ff91906107d4565b6106f6565b6040516101119190610846565b60405180910390f35b80662386f26fc10000811015610165576040517f08c379a000000000000000000000000000000000000000000000000000000000815260040161015c906108be565b60405180910390fd5b600160003373ffffffffffffffffffffffffffffffffffffffff1673ffffffffffffffffffffffffffffffffffffffff16815260200190815260200160002060009054906101000a900460ff166101f1576040517f08c379a00000000000000000000000000000000000000000000000000000000081526004016101e89061092a565b60405180910390fd5b81600260003373ffffffffffffffffffffffffffffffffffffffff1673ffffffffffffffffffffffffffffffffffffffff168152602001908152602001600020541015610273576040517f08c379a000000000000000000000000000000000000000000000000000000000815260040161026a90610996565b60405180910390fd5b81600260003373ffffffffffffffffffffffffffffffffffffffff1673ffffffffffffffffffffffffffffffffffffffff168152602001908152602001600020546102be91906109e5565b600260003373ffffffffffffffffffffffffffffffffffffffff1673ffffffffffffffffffffffffffffffffffffffff1681526020019081526020016000208190555060003373ffffffffffffffffffffffffffffffffffffffff168360405161032790610a4a565b60006040518083038185875af1925050503d8060008114610364576040519150601f19603f3d011682016040523d82523d6000602084013e610369565b606091505b50509050806103ad576040517f08c379a00000000000000000000000000000000000000000000000000000000081526004016103a490610ad1565b60405180910390fd5b3373ffffffffffffffffffffffffffffffffffffffff163073ffffffffffffffffffffffffffffffffffffffff167f9b1bfa7fa9ee420a16e124f794c35ac9f90472acc99140eb2f6447c714cad8eb8560405161040a9190610846565b60405180910390a36000600260003373ffffffffffffffffffffffffffffffffffffffff1673ffffffffffffffffffffffffffffffffffffffff1681526020019081526020016000205414156104ca576000600160003373ffffffffffffffffffffffffffffffffffffffff1673ffffffffffffffffffffffffffffffffffffffff16815260200190815260200160002060006101000a81548160ff0219169083151502179055506000808154809291906104c490610af1565b91905055505b505050565b60016020528060005260406000206000915054906101000a900460ff1681565b60005481565b34662386f26fc10000811015610540576040517f08c379a0000000000000000000000000000000000000000000000000000000008152600401610537906108be565b60405180910390fd5b600160003373ffffffffffffffffffffffffffffffffffffffff1673ffffffffffffffffffffffffffffffffffffffff16815260200190815260200160002060009054906101000a900460ff16610600576000808154809291906105a390610b1b565b919050555060018060003373ffffffffffffffffffffffffffffffffffffffff1673ffffffffffffffffffffffffffffffffffffffff16815260200190815260200160002060006101000a81548160ff0219169083151502179055505b34600260003373ffffffffffffffffffffffffffffffffffffffff1673ffffffffffffffffffffffffffffffffffffffff1681526020019081526020016000205461064b9190610b64565b600260003373ffffffffffffffffffffffffffffffffffffffff1673ffffffffffffffffffffffffffffffffffffffff168152602001908152602001600020819055503073ffffffffffffffffffffffffffffffffffffffff163373ffffffffffffffffffffffffffffffffffffffff167f5548c837ab068cf56a2c2479df0882a4922fd203edb7517321831d95078c5f62346040516106eb9190610846565b60405180910390a350565b60026020528060005260406000206000915090505481565b600080fd5b6000819050919050565b61072681610713565b811461073157600080fd5b50565b6000813590506107438161071d565b92915050565b60006020828403121561075f5761075e61070e565b5b600061076d84828501610734565b91505092915050565b600073ffffffffffffffffffffffffffffffffffffffff82169050919050565b60006107a182610776565b9050919050565b6107b181610796565b81146107bc57600080fd5b50565b6000813590506107ce816107a8565b92915050565b6000602082840312156107ea576107e961070e565b5b60006107f8848285016107bf565b91505092915050565b60008115159050919050565b61081681610801565b82525050565b6000602082019050610831600083018461080d565b92915050565b61084081610713565b82525050565b600060208201905061085b6000830184610837565b92915050565b600082825260208201905092915050565b7f4d696e696d756d20616d6f756e7420697320302e303120455448000000000000600082015250565b60006108a8601a83610861565b91506108b382610872565b602082019050919050565b600060208201905081810360008301526108d78161089b565b9050919050565b7f596f75206d7573742062652061207374616b6572000000000000000000000000600082015250565b6000610914601483610861565b915061091f826108de565b602082019050919050565b6000602082019050818103600083015261094381610907565b9050919050565b7f596f7520646f6e2774206861766520656e6f756768742066756e64732e000000600082015250565b6000610980601d83610861565b915061098b8261094a565b602082019050919050565b600060208201905081810360008301526109af81610973565b9050919050565b7f4e487b7100000000000000000000000000000000000000000000000000000000600052601160045260246000fd5b60006109f082610713565b91506109fb83610713565b925082821015610a0e57610a0d6109b6565b5b828203905092915050565b600081905092915050565b50565b6000610a34600083610a19565b9150610a3f82610a24565b600082019050919050565b6000610a5582610a27565b9150819050919050565b7f4661696c656420746f207769746864726177206d6f6e65792066726f6d20636f60008201527f6e74726163742e00000000000000000000000000000000000000000000000000602082015250565b6000610abb602783610861565b9150610ac682610a5f565b604082019050919050565b60006020820190508181036000830152610aea81610aae565b9050919050565b6000610afc82610713565b91506000821415610b1057610b0f6109b6565b5b600182039050919050565b6000610b2682610713565b91507fffffffffffffffffffffffffffffffffffffffffffffffffffffffffffffffff821415610b5957610b586109b6565b5b600182019050919050565b6000610b6f82610713565b9150610b7a83610713565b9250827fffffffffffffffffffffffffffffffffffffffffffffffffffffffffffffffff03821115610baf57610bae6109b6565b5b82820190509291505056fea264697066735822122049309696a823d44613f3bc1a7b8bd0dcb49a24e8af91e9d55a7c65a46600d0ab64736f6c63430008090033",
  "linkReferences": {},
  "deployedLinkReferences": {}
}