{
  "_format": "hh-sol-artifact-1",
  "contractName": "ProStakers",
  "sourceName": "contracts/ProStakers.sol",
  "abi": [
    {
      "anonymous": false,
      "inputs": [
        {
          "indexed": true,
          "internalType": "address",
          "name": "_from",
          "type": "address"
        },
        {
          "indexed": true,
          "internalType": "address",
          "name": "_to",
          "type": "address"
        },
        {
          "indexed": false,
          "internalType": "uint256",
          "name": "_value",
          "type": "uint256"
        }
      ],
      "name": "Deposit",
      "type": "event"
    },
    {
      "anonymous": false,
      "inputs": [
        {
          "indexed": true,
          "internalType": "address",
          "name": "_from",
          "type": "address"
        },
        {
          "indexed": true,
          "internalType": "address",
          "name": "_to",
          "type": "address"
        },
        {
          "indexed": false,
          "internalType": "uint256",
          "name": "_value",
          "type": "uint256"
        }
      ],
      "name": "Withdraw",
      "type": "event"
    },
    {
      "inputs": [],
      "name": "deposit",
      "outputs": [],
      "stateMutability": "payable",
      "type": "function"
    },
    {
      "inputs": [],
      "name": "getStakedBalance",
      "outputs": [
        {
          "internalType": "uint256",
          "name": "",
          "type": "uint256"
        }
      ],
      "stateMutability": "view",
      "type": "function"
    },
    {
      "inputs": [
        {
          "internalType": "address",
          "name": "",
          "type": "address"
        }
      ],
      "name": "isStaker",
      "outputs": [
        {
          "internalType": "bool",
          "name": "",
          "type": "bool"
        }
      ],
      "stateMutability": "view",
      "type": "function"
    },
    {
      "inputs": [
        {
          "internalType": "address",
          "name": "",
          "type": "address"
        }
      ],
      "name": "stakedAmount",
      "outputs": [
        {
          "internalType": "uint256",
          "name": "",
          "type": "uint256"
        }
      ],
      "stateMutability": "view",
      "type": "function"
    },
    {
      "inputs": [],
      "name": "stakersCount",
      "outputs": [
        {
          "internalType": "uint256",
          "name": "",
          "type": "uint256"
        }
      ],
      "stateMutability": "view",
      "type": "function"
    },
    {
      "inputs": [
        {
          "internalType": "uint256",
          "name": "_amount",
          "type": "uint256"
        }
      ],
      "name": "withdraw",
      "outputs": [],
      "stateMutability": "payable",
      "type": "function"
    }
  ],
  "bytecode": "0x60806040526000805534801561001457600080fd5b50610c6d806100246000396000f3fe6080604052600436106100555760003560e01c80632e1a7d4d1461005a5780636f1e85331461007657806376965867146100b3578063a2e80c5e146100de578063d0e30db014610109578063f993185514610113575b600080fd5b610074600480360381019061006f91906107c6565b610150565b005b34801561008257600080fd5b5061009d60048036038101906100989190610851565b610505565b6040516100aa9190610899565b60405180910390f35b3480156100bf57600080fd5b506100c8610525565b6040516100d591906108c3565b60405180910390f35b3480156100ea57600080fd5b506100f361056c565b60405161010091906108c3565b60405180910390f35b610111610572565b005b34801561011f57600080fd5b5061013a60048036038101906101359190610851565b610773565b60405161014791906108c3565b60405180910390f35b80662386f26fc1000081101561019b576040517f08c379a00000000000000000000000000000000000000000000000000000000081526004016101929061093b565b60405180910390fd5b600160003373ffffffffffffffffffffffffffffffffffffffff1673ffffffffffffffffffffffffffffffffffffffff16815260200190815260200160002060009054906101000a900460ff16610227576040517f08c379a000000000000000000000000000000000000000000000000000000000815260040161021e906109a7565b60405180910390fd5b81600260003373ffffffffffffffffffffffffffffffffffffffff1673ffffffffffffffffffffffffffffffffffffffff1681526020019081526020016000205410156102a9576040517f08c379a00000000000000000000000000000000000000000000000000000000081526004016102a090610a13565b60405180910390fd5b81600260003373ffffffffffffffffffffffffffffffffffffffff1673ffffffffffffffffffffffffffffffffffffffff168152602001908152602001600020546102f49190610a62565b600260003373ffffffffffffffffffffffffffffffffffffffff1673ffffffffffffffffffffffffffffffffffffffff1681526020019081526020016000208190555060003373ffffffffffffffffffffffffffffffffffffffff168360405161035d90610ac7565b60006040518083038185875af1925050503d806000811461039a576040519150601f19603f3d011682016040523d82523d6000602084013e61039f565b606091505b50509050806103e3576040517f08c379a00000000000000000000000000000000000000000000000000000000081526004016103da90610b4e565b60405180910390fd5b3373ffffffffffffffffffffffffffffffffffffffff163073ffffffffffffffffffffffffffffffffffffffff167f9b1bfa7fa9ee420a16e124f794c35ac9f90472acc99140eb2f6447c714cad8eb8560405161044091906108c3565b60405180910390a36000600260003373ffffffffffffffffffffffffffffffffffffffff1673ffffffffffffffffffffffffffffffffffffffff168152602001908152602001600020541415610500576000600160003373ffffffffffffffffffffffffffffffffffffffff1673ffffffffffffffffffffffffffffffffffffffff16815260200190815260200160002060006101000a81548160ff0219169083151502179055506000808154809291906104fa90610b6e565b91905055505b505050565b60016020528060005260406000206000915054906101000a900460ff1681565b6000600260003373ffffffffffffffffffffffffffffffffffffffff1673ffffffffffffffffffffffffffffffffffffffff16815260200190815260200160002054905090565b60005481565b34662386f26fc100008110156105bd576040517f08c379a00000000000000000000000000000000000000000000000000000000081526004016105b49061093b565b60405180910390fd5b600160003373ffffffffffffffffffffffffffffffffffffffff1673ffffffffffffffffffffffffffffffffffffffff16815260200190815260200160002060009054906101000a900460ff1661067d5760008081548092919061062090610b98565b919050555060018060003373ffffffffffffffffffffffffffffffffffffffff1673ffffffffffffffffffffffffffffffffffffffff16815260200190815260200160002060006101000a81548160ff0219169083151502179055505b34600260003373ffffffffffffffffffffffffffffffffffffffff1673ffffffffffffffffffffffffffffffffffffffff168152602001908152602001600020546106c89190610be1565b600260003373ffffffffffffffffffffffffffffffffffffffff1673ffffffffffffffffffffffffffffffffffffffff168152602001908152602001600020819055503073ffffffffffffffffffffffffffffffffffffffff163373ffffffffffffffffffffffffffffffffffffffff167f5548c837ab068cf56a2c2479df0882a4922fd203edb7517321831d95078c5f623460405161076891906108c3565b60405180910390a350565b60026020528060005260406000206000915090505481565b600080fd5b6000819050919050565b6107a381610790565b81146107ae57600080fd5b50565b6000813590506107c08161079a565b92915050565b6000602082840312156107dc576107db61078b565b5b60006107ea848285016107b1565b91505092915050565b600073ffffffffffffffffffffffffffffffffffffffff82169050919050565b600061081e826107f3565b9050919050565b61082e81610813565b811461083957600080fd5b50565b60008135905061084b81610825565b92915050565b6000602082840312156108675761086661078b565b5b60006108758482850161083c565b91505092915050565b60008115159050919050565b6108938161087e565b82525050565b60006020820190506108ae600083018461088a565b92915050565b6108bd81610790565b82525050565b60006020820190506108d860008301846108b4565b92915050565b600082825260208201905092915050565b7f4d696e696d756d20616d6f756e7420697320302e303120455448000000000000600082015250565b6000610925601a836108de565b9150610930826108ef565b602082019050919050565b6000602082019050818103600083015261095481610918565b9050919050565b7f596f75206d7573742062652061207374616b6572000000000000000000000000600082015250565b60006109916014836108de565b915061099c8261095b565b602082019050919050565b600060208201905081810360008301526109c081610984565b9050919050565b7f596f7520646f6e2774206861766520656e6f756768742066756e64732e000000600082015250565b60006109fd601d836108de565b9150610a08826109c7565b602082019050919050565b60006020820190508181036000830152610a2c816109f0565b9050919050565b7f4e487b7100000000000000000000000000000000000000000000000000000000600052601160045260246000fd5b6000610a6d82610790565b9150610a7883610790565b925082821015610a8b57610a8a610a33565b5b828203905092915050565b600081905092915050565b50565b6000610ab1600083610a96565b9150610abc82610aa1565b600082019050919050565b6000610ad282610aa4565b9150819050919050565b7f4661696c656420746f207769746864726177206d6f6e65792066726f6d20636f60008201527f6e74726163742e00000000000000000000000000000000000000000000000000602082015250565b6000610b386027836108de565b9150610b4382610adc565b604082019050919050565b60006020820190508181036000830152610b6781610b2b565b9050919050565b6000610b7982610790565b91506000821415610b8d57610b8c610a33565b5b600182039050919050565b6000610ba382610790565b91507fffffffffffffffffffffffffffffffffffffffffffffffffffffffffffffffff821415610bd657610bd5610a33565b5b600182019050919050565b6000610bec82610790565b9150610bf783610790565b9250827fffffffffffffffffffffffffffffffffffffffffffffffffffffffffffffffff03821115610c2c57610c2b610a33565b5b82820190509291505056fea26469706673582212209333da57e5ab970a1a94c3f8ecf68171e24b82854c067bd31f06152696c9c26c64736f6c63430008090033",
  "linkReferences": {},
  "deployedLinkReferences": {}
}